:100000000C942A000C9447000C9447000C94470071
:100010000C9447000C9447000C9447000C94470044
:100020000C9447000C9447000C9447000C94470034
:100030000C9447000C9447000C9447000C94470024
:100040000C9447000C9447000C9447000C94470014
:100050000C94470011241FBECFE5D8E0DEBFCDBF12
:1000600010E0A0E6B0E0EAE2FAE002C005900D92EE
:10007000A03DB107D9F710E0A0EDB0E001C01D929E
:10008000A03DB107E1F70E9417040C9413050C94EE
:100090000000843409F471C0853448F4823499F145
:1000A000833408F04DC0813409F083C00FC082361C
:1000B00051F1833620F4813609F07BC007C08336C6
:1000C00009F43EC0843609F074C057C0413069F469
:1000D0002AB381E090E0AC0102C0440F551F6A953D
:1000E000E2F7BA01622B6ABB08952AB381E090E07F
:1000F000AC0102C0440F551F6A95E2F7BA01609542
:1001000062236ABB0895413069F427B381E090E02F
:10011000AC0102C0440F551F6A95E2F7BA01622B89
:1001200067BB089527B381E090E0AC0102C0440FA3
:10013000551F6A95E2F7BA016095622367BB08957F
:10014000413069F424B381E090E0AC0102C0440F77
:10015000551F6A95E2F7BA01622B64BB089524B378
:1001600081E090E0AC0102C0440F551F6A95E2F7B0
:10017000BA016095622364BB0895413069F421B3EC
:1001800081E090E0AC0102C0440F551F6A95E2F790
:10019000BA01622B61BB089521B381E090E0AC010C
:1001A00002C0440F551F6A95E2F7BA0160956223B9
:1001B00061BB0895843409F471C0853448F48234F5
:1001C00099F1833408F04DC0813409F083C00FC029
:1001D000823651F1833620F4813609F07BC007C0A6
:1001E000833609F43EC0843609F074C057C04130EC
:1001F00069F42BB381E090E0AC0102C0440F551FBD
:100200006A95E2F7BA01622B6BBB08952BB381E0CC
:1002100090E0AC0102C0440F551F6A95E2F7BA01A5
:10022000609562236BBB0895413069F428B381E087
:1002300090E0AC0102C0440F551F6A95E2F7BA0185
:10024000622B68BB089528B381E090E0AC0102C046
:10025000440F551F6A95E2F7BA016095622368BBA7
:100260000895413069F425B381E090E0AC0102C00B
:10027000440F551F6A95E2F7BA01622B65BB0895DA
:1002800025B381E090E0AC0102C0440F551F6A9590
:10029000E2F7BA016095622365BB0895413069F4C5
:1002A00022B381E090E0AC0102C0440F551F6A9573
:1002B000E2F7BA01622B62BB089522B381E090E0BD
:1002C000AC0102C0440F551F6A95E2F7BA01609570
:1002D000622362BB0895843409F43DC0853440F440
:1002E0008234F9F0833450F5813409F040C00CC0F9
:1002F0008236B9F0833618F48136C9F505C08336E5
:10030000E9F08436A1F527C02BB381E090E0AC0181
:1003100002C0440F551F6A95E2F7BA0162276BBB12
:10032000089528B381E090E0AC0102C0440F551F4E
:100330006A95E2F7BA01622768BB089525B381E0A8
:1003400090E0AC0102C0440F551F6A95E2F7BA0174
:10035000622765BB089522B381E090E0AC0102C042
:10036000440F551F6A95E2F7BA01622762BB0895F0
:100370008434B1F1853438F48234E1F0833428F5E3
:100380008134C1F50CC08236A9F0833618F4813669
:1003900089F505C08336C9F0843661F521C029B3DB
:1003A00030E0C90102C0959587956A95E2F7982FCC
:1003B000917020C026B330E0C90102C095958795A1
:1003C0006A95E2F7982F917015C023B330E0C90108
:1003D00002C0959587956A95E2F7982F91700AC0AB
:1003E00020B330E0C90102C0959587956A95E2F780
:1003F000982F9170892F08958434D9F0853438F47A
:10040000823499F0833498F48134A1F40CC082369C
:1004100061F0833618F4813669F405C0833639F00B
:10042000843641F406C06ABB089567BB089564BB77
:10043000089561BB08958434D9F0853438F482344A
:1004400099F0833498F48134A1F40CC0823661F0C1
:10045000833618F4813669F405C0833639F0843662
:1004600041F406C06BBB089568BB089565BB089551
:1004700062BB0895843409F1853438F48234A9F0DC
:100480008334B8F48134E1F40CC0823671F08336E1
:1004900018F48136A9F405C0833659F0843681F406
:1004A0000CC08BB380958BBB089588B3809588BBB7
:1004B000089585B3809585BB089582B3809582BBEE
:1004C00008958434D9F0853438F4823499F0833433
:1004D00098F48134A1F40CC0823661F0833618F4AC
:1004E000813669F405C0833639F0843641F406C09C
:1004F00099B305C096B303C093B301C090B3892FDD
:1005000008950E94DA000895CF93DF93C82FD62F65
:10051000462F417060E00E94DA004D2F46954170F1
:100520008C2F61E00E94DA004D2F46954695417070
:100530008C2F62E00E94DA00D695D695D6954D2F85
:1005400041708C2F63E00E94DA00DF91CF91089513
:10055000CF93DF93C82FD62F462F417064E00E94BF
:10056000DA004D2F469541708C2F65E00E94DA002D
:100570004D2F4695469541708C2F66E00E94DA001B
:10058000D695D695D6954D2F41708C2F67E00E9459
:10059000DA00DF91CF9108958EBB9FBB6DBBE29ACD
:1005A000E19A8CB381FDFDCF08958EBB9FBBE09A8D
:1005B0008DB30895CF93C82F6FE00E94FC018C2F5C
:1005C00064E041E00E9481028C2F65E041E00E94DE
:1005D00081028C2F66E041E00E9481028C2F67E04F
:1005E00041E00E948102CF910895EF92FF920F9314
:1005F0001F93CF93DF93CDB7DEB760970FB6F89414
:10060000DEBF0FBECDBF082FDE011196E0E6F0E0A1
:1006100080E101900D928150E1F7EE24FF24802FBC
:100620006FE00E948402802F6E2D40E00E94DA006D
:1006300010E0612F6C5F802F0E94B801882389F43D
:10064000F701EE0FFF1FEE0FFF1FE10FF11D81E01D
:1006500090E08C0F9D1FE80FF91F80818F3F21F0E4
:100660000BC01F5F143029F70894E11CF11C94E0C3
:10067000E916F104A1F68FEF60960FB6F894DEBF8D
:100680000FBECDBFDF91CF911F910F91FF90EF90E3
:10069000089582E460E041E00E94DA008FE99FE083
:1006A0000197F1F700C0000082E460E040E00E94A2
:1006B000DA008FE99FE00197F1F700C0000008958C
:1006C000CF93C82F82E461E040E00E94DA006C2FF3
:1006D00062956F7081E40E94A8020E94490381E440
:1006E0006C2F0E94A8020E9449038FEC97E00197AB
:1006F000F1F700C00000CF910895CF93C82F82E496
:1007000061E041E00E94DA006C2F62956F7081E435
:100710000E94A8020E94490381E46C2F0E94A80253
:100720000E9449038FEC97E00197F1F700C00000A9
:10073000CF91089581E00E9460038FE496E40197D1
:10074000F1F700C00000089582E00E9460038FE48A
:1007500096E40197F1F700C0000008958FE799EA49
:10076000A3E081509040A040E1F700C0000081E488
:1007700064E041E00E94490081E465E041E00E94BC
:10078000490081E466E041E00E94490081E467E0BD
:1007900041E00E94490082E460E041E00E9449009B
:1007A00082E461E041E00E94490082E462E041E0CD
:1007B0000E94490082E462E040E00E94DA000E9468
:1007C000A40388E20E9460038EE00E9460030E94FE
:1007D0009A0386E00E9460030895CF93DF93EC01B3
:1007E0008881882331F021960E947D038991882396
:1007F000D9F7DF91CF910895282F2150223070F43E
:10080000613170F4662371F0813019F4962F91589C
:100810000AC0823041F4962F915405C090E803C07D
:1008200090E801C090E8892F0E9460030895CF935B
:10083000DF9300D000D0CDB7DEB784E40E94DA02A7
:100840000E94AE038FEF89838A838B838C83DD24A0
:100850000F2EF3E0CF2EF02D0F2EF0E74F2EF0E00D
:100860005F2EF02D0F2EF5E0AF2EBB24F02DAC0E39
:10087000BD1E0F2EF6EA6F2EF0E07F2EF02D0F2E0C
:10088000FAE78F2EF0E09F2EF02D0F2EF5EB2F2E96
:10089000F0E03F2EF02D80E190E00E94D5028F3FE6
:1008A000C1F5C2010E94ED030F2EF1E1EF2EFF24EE
:1008B000F02D84E40E94F502182F8F3FD1F30E949F
:1008C0007D03C701612F0E94CC028FEF94E3ACE05F
:1008D00081509040A040E1F700C0000080E10E94FC
:1008E00060038AE20E947D030894E11CF11C95E1FB
:1008F000E916F104F1F680E190E060E00E94CC029C
:100900008FEF94E3ACE081509040A040E1F700C04D
:100910000000DD2009F0BFCF0E949A03C4010E94AD
:10092000ED038E010F5F1F4F84E40E94F502D80192
:100930008C938F3FC9F30E947D038FEF94E3ACE06B
:1009400081509040A040E1F700C0000080E10E948B
:1009500060038AE20E947D030F5F1F4F0A151B058B
:1009600019F7198181E190E00E94D502181721F54D
:100970001A8182E190E00E94D5021817E9F41B81E8
:1009800083E190E00E94D5021817B1F41C8184E144
:1009900090E00E94D502181779F40E949A0386E825
:1009A00090E00E94ED0382E061E00E94FC0387E991
:1009B00090E00E94ED0334C0CA941C1424F50E94F8
:1009C0009A03C3010E94ED038FEF99E6A8E18150DD
:1009D0009040A040E1F700C000000E949A03C101CE
:1009E0000E94ED038C2D805D0E947D038FEF99E6C0
:1009F000A8E181509040A040E1F700C00000DD2058
:100A000009F049CF89CF0E949A03C3010E94ED03E8
:100A100082E061E00E94FC0381EC90E00E94ED0323
:0A0A2000DD24D39438CFF894FFCF03
:100A2A003738392F3435362A3132332D43303D2B7E
:100A3A0053657420506173733A00436865636B2091
:100A4A00506173733A00436F727265637420506128
:100A5A007373776F72640053616665206973206FE0
:100A6A0070656E65640057726F6E672050617373AC
:100A7A00776F7264005472696573206C6566743AA4
:100A8A00005361666520697320636C6F7365640047
:00000001FF
